{
  "_format": "hh-sol-artifact-1",
  "contractName": "MessageStorage",
  "sourceName": "contracts/MessageStorage.sol",
  "abi": [
    {
      "inputs": [],
      "stateMutability": "nonpayable",
      "type": "constructor"
    },
    {
      "inputs": [],
      "name": "getMessage",
      "outputs": [
        {
          "internalType": "string",
          "name": "",
          "type": "string"
        }
      ],
      "stateMutability": "view",
      "type": "function"
    },
    {
      "inputs": [],
      "name": "owner",
      "outputs": [
        {
          "internalType": "address",
          "name": "",
          "type": "address"
        }
      ],
      "stateMutability": "view",
      "type": "function"
    },
    {
      "inputs": [
        {
          "internalType": "string",
          "name": "_message",
          "type": "string"
        }
      ],
      "name": "setMessage",
      "outputs": [],
      "stateMutability": "nonpayable",
      "type": "function"
    }
  ],
  "bytecode": "0x6080604052348015600f57600080fd5b5033600160006101000a81548173ffffffffffffffffffffffffffffffffffffffff021916908373ffffffffffffffffffffffffffffffffffffffff16021790555061083e806100606000396000f3fe608060405234801561001057600080fd5b50600436106100415760003560e01c8063368b8772146100465780638da5cb5b14610062578063ce6d41de14610080575b600080fd5b610060600480360381019061005b91906102fb565b61009e565b005b61006a610144565b6040516100779190610389565b60405180910390f35b61008861016a565b6040516100959190610434565b60405180910390f35b600160009054906101000a900473ffffffffffffffffffffffffffffffffffffffff1673ffffffffffffffffffffffffffffffffffffffff163373ffffffffffffffffffffffffffffffffffffffff161461012e576040517f08c379a0000000000000000000000000000000000000000000000000000000008152600401610125906104c8565b60405180910390fd5b81816000918261013f929190610738565b505050565b600160009054906101000a900473ffffffffffffffffffffffffffffffffffffffff1681565b6060600160009054906101000a900473ffffffffffffffffffffffffffffffffffffffff1673ffffffffffffffffffffffffffffffffffffffff163373ffffffffffffffffffffffffffffffffffffffff16146101fc576040517f08c379a00000000000000000000000000000000000000000000000000000000081526004016101f3906104c8565b60405180910390fd5b6000805461020990610551565b80601f016020809104026020016040519081016040528092919081815260200182805461023590610551565b80156102825780601f1061025757610100808354040283529160200191610282565b820191906000526020600020905b81548152906001019060200180831161026557829003601f168201915b5050505050905090565b600080fd5b600080fd5b600080fd5b600080fd5b600080fd5b60008083601f8401126102bb576102ba610296565b5b8235905067ffffffffffffffff8111156102d8576102d761029b565b5b6020830191508360018202830111156102f4576102f36102a0565b5b9250929050565b600080602083850312156103125761031161028c565b5b600083013567ffffffffffffffff8111156103305761032f610291565b5b61033c858286016102a5565b92509250509250929050565b600073ffffffffffffffffffffffffffffffffffffffff82169050919050565b600061037382610348565b9050919050565b61038381610368565b82525050565b600060208201905061039e600083018461037a565b92915050565b600081519050919050565b600082825260208201905092915050565b60005b838110156103de5780820151818401526020810190506103c3565b60008484015250505050565b6000601f19601f8301169050919050565b6000610406826103a4565b61041081856103af565b93506104208185602086016103c0565b610429816103ea565b840191505092915050565b6000602082019050818103600083015261044e81846103fb565b905092915050565b7f4f6e6c7920746865206f776e65722063616e2063616c6c20746869732066756e60008201527f6374696f6e000000000000000000000000000000000000000000000000000000602082015250565b60006104b26025836103af565b91506104bd82610456565b604082019050919050565b600060208201905081810360008301526104e1816104a5565b9050919050565b600082905092915050565b7f4e487b7100000000000000000000000000000000000000000000000000000000600052604160045260246000fd5b7f4e487b7100000000000000000000000000000000000000000000000000000000600052602260045260246000fd5b6000600282049050600182168061056957607f821691505b60208210810361057c5761057b610522565b5b50919050565b60008190508160005260206000209050919050565b60006020601f8301049050919050565b600082821b905092915050565b6000600883026105e47fffffffffffffffffffffffffffffffffffffffffffffffffffffffffffffffff826105a7565b6105ee86836105a7565b95508019841693508086168417925050509392505050565b6000819050919050565b6000819050919050565b600061063561063061062b84610606565b610610565b610606565b9050919050565b6000819050919050565b61064f8361061a565b61066361065b8261063c565b8484546105b4565b825550505050565b600090565b61067861066b565b610683818484610646565b505050565b5b818110156106a75761069c600082610670565b600181019050610689565b5050565b601f8211156106ec576106bd81610582565b6106c684610597565b810160208510156106d5578190505b6106e96106e185610597565b830182610688565b50505b505050565b600082821c905092915050565b600061070f600019846008026106f1565b1980831691505092915050565b600061072883836106fe565b9150826002028217905092915050565b61074283836104e8565b67ffffffffffffffff81111561075b5761075a6104f3565b5b6107658254610551565b6107708282856106ab565b6000601f83116001811461079f576000841561078d578287013590505b610797858261071c565b8655506107ff565b601f1984166107ad86610582565b60005b828110156107d5578489013582556001820191506020850194506020810190506107b0565b868310156107f257848901356107ee601f8916826106fe565b8355505b6001600288020188555050505b5050505050505056fea26469706673582212202c57d28085ea23c16eeea1487b80406541d33bf3322e78be0fe41f0d04b7654c64736f6c634300081c0033",
  "linkReferences": {},
  "deployedLinkReferences": {}
}